:100000000C9434000C943E000C943E000C943E0082
:100010000C943E000C943E000C943E000C943E0068
:100020000C943E000C943E000C943E000C943E0058
:100030000C943E000C943E000C943E000C943E0048
:100040000C943E000C943E000C943E000C943E0038
:100050000C943E000C943E000C943E000C943E0028
:100060000C943E000C943E0011241FBECFEFD8E04C
:10007000DEBFCDBF0E9440000C9489000C940000AC
:10008000CFEFD8E0DEBFCDBF0E9448000E945500F0
:100090001124AA271FBE80E880936100109261009E
:1000A000259A2D98249A2C98089595B1903011F4A2
:1000B0000C9455000E9466000C9455000E94660046
:1000C0000C9455000E9466000C94550085B190E296
:1000D000892785B9089504E618EC28EC2A95F1F7EC
:1000E0001A95D9F70A95C1F7089502E318EC28ECA0
:1000F0002A95F1F71A95D9F70A95C1F708950FE0F7
:1001000018EC28EC2A95F1F71A95D9F70A95C1F75A
:060110000895F894FFCFF2
:00000001FF
