:100000000C9434000C943E000C943E000C943E0082
:100010000C943E000C943E000C943E000C943E0068
:100020000C943E000C943E000C943E000C943E0058
:100030000C943E000C943E000C943E000C943E0048
:100040000C943E000C943E000C943E000C943E0038
:100050000C943E000C943E000C943E000C943E0028
:100060000C943E000C943E0011241FBECFEFD8E04C
:10007000DEBFCDBF0E9440000C9474000C940000C1
:10008000CFEFD8E0DEBFCDBF0E945B000E946500CD
:100090000E946A000E9465000E946A000E946A0035
:1000A0000E9465000E946A000E946A000E9465002A
:1000B0000E946A00EBCF11241FBE80E8809361008C
:1000C00010926100259A2D98089585B190E28927B4
:1000D00085B9089504E618EC28EC2A95F1F71A95ED
:0C00E000D9F70A95C1F70895F894FFCFF6
:00000001FF
