:100000000C9434000C943E000C943E000C943E0082
:100010000C943E000C943E000C943E000C943E0068
:100020000C943E000C943E000C943E000C943E0058
:100030000C943E000C943E000C943E000C943E0048
:100040000C943E000C943E000C943E000C943E0038
:100050000C943E000C943E000C943E000C943E0028
:100060000C943E000C943E0011241FBECFEFD8E04C
:10007000DEBFCDBF0E9440000C9470000C940000C5
:10008000CFEFD8E0DEBFCDBF0E9448000E945300F2
:1000900011241FBE80E88093610010926100259AB0
:1000A0002D98209A089585B184300CF0E4F70E94D1
:1000B00061000E9466000E9461000E9466000C942C
:1000C000570085B190E2892785B9089504E618ECB8
:1000D00028EC2A95F1F71A95D9F70A95C1F70895F2
:0400E000F894FFCFC2
:00000001FF
