:100000000C9434000C943E000C943E000C943E0082
:100010000C943E000C943E000C943E000C943E0068
:100020000C943E000C943E000C943E000C943E0058
:100030000C943E000C943E000C943E000C943E0048
:100040000C943E000C943E000C943E000C943E0038
:100050000C943E000C943E000C943E000C943E0028
:100060000C943E000C943E0011241FBECFEFD8E04C
:10007000DEBFCDBF0E9440000C9471000C940000C4
:10008000CFEFD8E0DEBFCDBF0E9448000E945400F1
:1000900011241FBE80E88093610010926100259AB0
:1000A0002D98009A019A089580B184300CF4E4F3FD
:1000B0000E9462000E9467000E9462000E94670026
:1000C0000C94580085B190E2892785B9089504E61B
:1000D00018EC28EC2A95F1F71A95D9F70A95C1F78B
:0600E0000895F894FFCF23
:00000001FF
