:100000000C9434000C943E000C943E000C943E0082
:100010000C943E000C943E000C943E000C943E0068
:100020000C943E000C943E000C943E000C943E0058
:100030000C943E000C943E000C943E000C943E0048
:100040000C943E000C943E000C943E000C943E0038
:100050000C943E000C943E000C943E000C943E0028
:100060000C943E000C943E0011241FBECFEFD8E04C
:10007000DEBFCDBF0E94C2000C9409010C940000A9
:100080008BB192E089278BB98BB190E089278BB92E
:100090008BB198E089278BB98BB190E089278BB918
:1000A0008BB190E289278BB98BB190E489278BB90A
:1000B0008BB190E089278BB985B190E0892785B90C
:1000C00085B190E0892785B985B194E0892785B904
:1000D00085B198E0892785B985B190E0892785B9F0
:1000E00085B190E0892785B988B190E0892788B9E2
:1000F00088B192E0892788B988B194E0892788B9C6
:1001000008958BB192E089278BB98BB194E0892750
:100110008BB98BB190E089278BB98BB190E189279E
:100120008BB98BB190E089278BB98BB190E089278F
:100130008BB98BB190E889278BB985B191E089277C
:1001400085B985B192E0892785B985B190E0892785
:1001500085B985B190E0892785B985B190E0892777
:1001600085B985B190E2892785B988B191E0892761
:1001700088B988B190E0892788B988B190E089274B
:1001800088B90895CFEFD8E0DEBFCDBF0E94DB0075
:100190000E9481000E94FF000E9481000E94FF00D7
:1001A0000E94F3000E9440000E94FF000E94400055
:1001B0000E94FF00EDCF11241FBE80E880936100F4
:1001C00010926100519A529A539A549A559A569A9B
:1001D000579A209A219A229A239A249A259A389AF1
:1001E000399A3A9A089511B802B808958BB190E0FF
:1001F00089278BB98BB198E089278BB9089504E6DC
:1002000018EC28EC2A95F1F71A95D9F70A95C1F759
:060210000895F894FFCFF1
:00000001FF
