:100000000C9434000C943E000C943E000C943E0082
:100010000C943E000C943E000C943E000C943E0068
:100020000C943E000C943E000C943E000C943E0058
:100030000C943E000C943E000C943E000C943E0048
:100040000C943E000C943E000C943E000C943E0038
:100050000C943E000C943E000C943E000C943E0028
:100060000C943E000C943E0011241FBECFEFD8E04C
:10007000DEBFCDBF0E94C1100C942A190C94000061
:100080008BB190E089278BB98BB190E089278BB930
:100090008BB198E089278BB98BB190E089278BB918
:1000A0008BB190E289278BB98BB190E489278BB90A
:1000B0008BB190E089278BB985B190E0892785B90C
:1000C00085B192E0892785B985B194E0892785B902
:1000D00085B198E0892785B985B190E1892785B9EF
:1000E00085B190E0892785B988B190E0892788B9E2
:1000F00088B192E0892788B988B190E0892788B9CA
:1001000008958BB190E089278BB98BB190E0892756
:100110008BB98BB198E089278BB98BB190E0892797
:100120008BB98BB190E289278BB98BB190E4892789
:100130008BB98BB190E089278BB985B190E0892785
:1001400085B985B190E0892785B985B194E0892783
:1001500085B985B198E0892785B985B190E189276E
:1001600085B985B190E0892785B988B191E0892763
:1001700088B988B192E0892788B988B190E0892749
:1001800088B908958BB192E089278BB98BB190E043
:1001900089278BB98BB198E089278BB98BB190E017
:1001A00089278BB98BB190E289278BB98BB190E409
:1001B00089278BB98BB190E089278BB985B190E005
:1001C000892785B985B190E0892785B985B194E003
:1001D000892785B985B198E0892785B985B190E1EE
:1001E000892785B985B190E0892785B988B190E0E4
:1001F000892788B988B192E0892788B988B190E0C9
:10020000892788B908958BB190E089278BB98BB184
:1002100090E089278BB98BB198E089278BB98BB196
:1002200090E089278BB98BB190E289278BB98BB18C
:1002300090E489278BB98BB190E089278BB985B180
:1002400090E0892785B985B190E0892785B985B186
:1002500094E0892785B985B198E0892785B985B16A
:1002600090E1892785B985B190E2892785B988B160
:1002700090E0892788B988B192E0892788B988B148
:1002800090E0892788B908958BB190E089278BB9D0
:100290008BB190E089278BB98BB198E089278BB916
:1002A0008BB190E089278BB98BB190E289278BB90C
:1002B0008BB190E489278BB98BB190E089278BB9FA
:1002C00085B191E0892785B985B190E0892785B905
:1002D00085B194E0892785B985B198E0892785B9EA
:1002E00085B190E1892785B985B190E0892785B9E5
:1002F00088B190E0892788B988B192E0892788B9C8
:1003000088B190E0892788B908958BB190E089275A
:100310008BB98BB194E089278BB98BB198E0892791
:100320008BB98BB190E089278BB98BB190E289278B
:100330008BB98BB190E489278BB98BB190E0892779
:100340008BB985B190E0892785B985B190E089277F
:1003500085B985B194E0892785B985B198E0892769
:1003600085B985B190E1892785B985B190E0892764
:1003700085B988B190E0892788B988B192E089274A
:1003800088B988B190E0892788B908958BB190E049
:1003900089278BB98BB190E089278BB98BB198E015
:1003A00089278BB98BB190E089278BB98BB190E20B
:1003B00089278BB98BB190E489278BB98BB190E8F1
:1003C00089278BB985B190E0892785B985B190E0FF
:1003D000892785B985B194E0892785B985B198E0E9
:1003E000892785B985B190E1892785B985B190E0E4
:1003F000892785B988B190E0892788B988B192E0CA
:10040000892788B988B190E0892788B908958BB188
:1004100090E089278BB98BB190E089278BB98BB19C
:1004200098E089278BB98BB190E189278BB98BB183
:1004300090E289278BB98BB190E489278BB98BB176
:1004400090E089278BB985B190E0892785B985B17E
:1004500090E0892785B985B194E0892785B985B170
:1004600098E0892785B985B190E1892785B985B15B
:1004700090E0892785B988B190E0892788B988B14B
:1004800092E0892788B988B190E0892788B90895D2
:100490008BB190E089278BB98BB190E089278BB91C
:1004A0008BB198E089278BB98BB190E089278BB904
:1004B0008BB190E289278BB98BB190E489278BB9F6
:1004C0008BB190E089278BB985B190E0892785B9F8
:1004D00085B192E0892785B985B194E0892785B9EE
:1004E00085B198E0892785B985B190E1892785B9DB
:1004F00085B190E0892785B988B190E0892788B9CE
:1005000088B190E0892788B988B194E0892788B9B3
:1005100008958BB190E089278BB98BB190E0892742
:100520008BB98BB198E089278BB98BB190E0892783
:100530008BB98BB190E289278BB98BB190E4892775
:100540008BB98BB190E089278BB985B190E0892771
:1005500085B985B190E0892785B985B194E089276F
:1005600085B985B198E0892785B985B190E189275A
:1005700085B985B190E0892785B988B191E089274F
:1005800088B988B190E0892788B988B194E0892733
:1005900088B908958BB192E089278BB98BB190E02F
:1005A00089278BB98BB198E089278BB98BB190E003
:1005B00089278BB98BB190E289278BB98BB190E4F5
:1005C00089278BB98BB190E089278BB985B190E0F1
:1005D000892785B985B190E0892785B985B194E0EF
:1005E000892785B985B198E0892785B985B190E1DA
:1005F000892785B985B190E0892785B988B190E0D0
:10060000892788B988B190E0892788B988B194E0B2
:10061000892788B908958BB190E089278BB98BB170
:1006200090E089278BB98BB198E089278BB98BB182
:1006300090E089278BB98BB190E289278BB98BB178
:1006400090E489278BB98BB190E089278BB985B16C
:1006500090E0892785B985B190E0892785B985B172
:1006600094E0892785B985B198E0892785B985B156
:1006700090E1892785B985B190E2892785B988B14C
:1006800090E0892788B988B190E0892788B988B136
:1006900094E0892788B908958BB190E089278BB9B8
:1006A0008BB190E089278BB98BB198E089278BB902
:1006B0008BB190E089278BB98BB190E289278BB9F8
:1006C0008BB190E489278BB98BB190E089278BB9E6
:1006D00085B191E0892785B985B190E0892785B9F1
:1006E00085B194E0892785B985B198E0892785B9D6
:1006F00085B190E1892785B985B190E0892785B9D1
:1007000088B190E0892788B988B190E0892788B9B5
:1007100088B194E0892788B908958BB190E0892742
:100720008BB98BB194E089278BB98BB198E089277D
:100730008BB98BB190E089278BB98BB190E2892777
:100740008BB98BB190E489278BB98BB190E0892765
:100750008BB985B190E0892785B985B190E089276B
:1007600085B985B194E0892785B985B198E0892755
:1007700085B985B190E1892785B985B190E0892750
:1007800085B988B190E0892788B988B190E0892738
:1007900088B988B194E0892788B908958BB190E031
:1007A00089278BB98BB190E089278BB98BB198E001
:1007B00089278BB98BB190E089278BB98BB190E2F7
:1007C00089278BB98BB190E489278BB98BB190E8DD
:1007D00089278BB985B190E0892785B985B190E0EB
:1007E000892785B985B194E0892785B985B198E0D5
:1007F000892785B985B190E1892785B985B190E0D0
:10080000892785B988B190E0892788B988B190E0B7
:10081000892788B988B194E0892788B908958BB170
:1008200090E089278BB98BB190E089278BB98BB188
:1008300098E089278BB98BB190E189278BB98BB16F
:1008400090E289278BB98BB190E489278BB98BB162
:1008500090E089278BB985B190E0892785B985B16A
:1008600090E0892785B985B194E0892785B985B15C
:1008700098E0892785B985B190E1892785B985B147
:1008800090E0892785B988B190E0892788B988B137
:1008900090E0892788B988B194E0892788B90895BC
:1008A0008BB190E089278BB98BB190E089278BB908
:1008B0008BB198E089278BB98BB190E089278BB9F0
:1008C0008BB190E289278BB98BB190E489278BB9E2
:1008D0008BB190E089278BB985B190E0892785B9E4
:1008E00085B192E0892785B985B194E0892785B9DA
:1008F00085B190E0892785B985B190E1892785B9CF
:1009000085B190E0892785B988B190E0892788B9B9
:1009100088B190E0892788B988B194E0892788B99F
:1009200008958BB190E089278BB98BB190E089272E
:100930008BB98BB198E089278BB98BB190E089276F
:100940008BB98BB190E289278BB98BB190E4892761
:100950008BB98BB190E089278BB985B190E089275D
:1009600085B985B190E0892785B985B194E089275B
:1009700085B985B190E0892785B985B190E189274E
:1009800085B985B190E0892785B988B191E089273B
:1009900088B988B190E0892788B988B194E089271F
:1009A00088B908958BB192E089278BB98BB190E01B
:1009B00089278BB98BB198E089278BB98BB190E0EF
:1009C00089278BB98BB190E289278BB98BB190E4E1
:1009D00089278BB98BB190E089278BB985B190E0DD
:1009E000892785B985B190E0892785B985B194E0DB
:1009F000892785B985B190E0892785B985B190E1CE
:100A0000892785B985B190E0892785B988B190E0BB
:100A1000892788B988B192E0892788B988B194E09C
:100A2000892788B908958BB190E089278BB98BB15C
:100A300090E089278BB98BB198E089278BB98BB16E
:100A400090E089278BB98BB190E289278BB98BB164
:100A500090E489278BB98BB190E089278BB985B158
:100A600090E0892785B985B190E0892785B985B15E
:100A700094E0892785B985B190E0892785B985B14A
:100A800090E1892785B985B190E2892785B988B138
:100A900090E0892788B988B192E0892788B988B120
:100AA00094E0892788B908958BB190E089278BB9A4
:100AB0008BB190E089278BB98BB198E089278BB9EE
:100AC0008BB190E089278BB98BB190E289278BB9E4
:100AD0008BB190E489278BB98BB190E089278BB9D2
:100AE00085B191E0892785B985B190E0892785B9DD
:100AF00085B194E0892785B985B190E0892785B9CA
:100B000085B190E1892785B985B190E0892785B9BC
:100B100088B190E0892788B988B192E0892788B99F
:100B200088B194E0892788B908958BB190E089272E
:100B30008BB98BB194E089278BB98BB198E0892769
:100B40008BB98BB190E089278BB98BB190E2892763
:100B50008BB98BB190E489278BB98BB190E0892751
:100B60008BB985B190E0892785B985B190E0892757
:100B700085B985B194E0892785B985B190E0892749
:100B800085B985B190E1892785B985B190E089273C
:100B900085B988B190E0892788B988B192E0892722
:100BA00088B988B194E0892788B908958BB190E01D
:100BB00089278BB98BB190E089278BB98BB198E0ED
:100BC00089278BB98BB190E089278BB98BB190E2E3
:100BD00089278BB98BB190E489278BB98BB190E8C9
:100BE00089278BB985B190E0892785B985B190E0D7
:100BF000892785B985B194E0892785B985B190E0C9
:100C0000892785B985B190E1892785B985B190E0BB
:100C1000892785B988B190E0892788B988B192E0A1
:100C2000892788B988B194E0892788B908958BB15C
:100C300090E089278BB98BB190E089278BB98BB174
:100C400098E089278BB98BB190E189278BB98BB15B
:100C500090E289278BB98BB190E489278BB98BB14E
:100C600090E089278BB985B190E0892785B985B156
:100C700090E0892785B985B194E0892785B985B148
:100C800090E0892785B985B190E1892785B985B13B
:100C900090E0892785B988B190E0892788B988B123
:100CA00092E0892788B988B194E0892788B90895A6
:100CB0008BB190E089278BB98BB190E089278BB9F4
:100CC0008BB190E089278BB98BB190E089278BB9E4
:100CD0008BB190E289278BB98BB190E489278BB9CE
:100CE0008BB190E089278BB985B190E0892785B9D0
:100CF00085B192E0892785B985B194E0892785B9C6
:100D000085B198E0892785B985B190E1892785B9B2
:100D100085B190E0892785B988B190E0892788B9A5
:100D200088B192E0892788B988B194E0892788B989
:100D300008958BB190E089278BB98BB190E089271A
:100D40008BB98BB190E089278BB98BB190E0892763
:100D50008BB98BB190E289278BB98BB190E489274D
:100D60008BB98BB190E089278BB985B190E0892749
:100D700085B985B190E0892785B985B194E0892747
:100D800085B985B198E0892785B985B190E1892732
:100D900085B985B190E0892785B988B191E0892727
:100DA00088B988B192E0892788B988B194E0892709
:100DB00088B908958BB192E089278BB98BB190E007
:100DC00089278BB98BB190E089278BB98BB190E0E3
:100DD00089278BB98BB190E289278BB98BB190E4CD
:100DE00089278BB98BB190E089278BB985B190E0C9
:100DF000892785B985B190E0892785B985B194E0C7
:100E0000892785B985B198E0892785B985B190E1B1
:100E1000892785B985B190E0892785B988B190E0A7
:100E2000892788B988B192E0892788B988B194E088
:100E3000892788B908958BB190E089278BB98BB148
:100E400090E089278BB98BB190E089278BB98BB162
:100E500090E089278BB98BB190E289278BB98BB150
:100E600090E489278BB98BB190E089278BB985B144
:100E700090E0892785B985B190E0892785B985B14A
:100E800094E0892785B985B198E0892785B985B12E
:100E900090E1892785B985B190E2892785B988B124
:100EA00090E0892788B988B192E0892788B988B10C
:100EB00094E0892788B908958BB190E089278BB990
:100EC0008BB190E089278BB98BB190E089278BB9E2
:100ED0008BB190E089278BB98BB190E289278BB9D0
:100EE0008BB190E489278BB98BB190E089278BB9BE
:100EF00085B191E0892785B985B190E0892785B9C9
:100F000085B194E0892785B985B198E0892785B9AD
:100F100085B190E1892785B985B190E0892785B9A8
:100F200088B190E0892788B988B192E0892788B98B
:100F300088B194E0892788B908958BB190E089271A
:100F40008BB98BB194E089278BB98BB190E089275D
:100F50008BB98BB190E089278BB98BB190E289274F
:100F60008BB98BB190E489278BB98BB190E089273D
:100F70008BB985B190E0892785B985B190E0892743
:100F800085B985B194E0892785B985B198E089272D
:100F900085B985B190E1892785B985B190E0892728
:100FA00085B988B190E0892788B988B192E089270E
:100FB00088B988B194E0892788B908958BB190E009
:100FC00089278BB98BB190E089278BB98BB190E0E1
:100FD00089278BB98BB190E089278BB98BB190E2CF
:100FE00089278BB98BB190E489278BB98BB190E8B5
:100FF00089278BB985B190E0892785B985B190E0C3
:10100000892785B985B194E0892785B985B198E0AC
:10101000892785B985B190E1892785B985B190E0A7
:10102000892785B988B190E0892788B988B192E08D
:10103000892788B988B194E0892788B908958BB148
:1010400090E089278BB98BB190E089278BB98BB160
:1010500090E089278BB98BB190E189278BB98BB14F
:1010600090E289278BB98BB190E489278BB98BB13A
:1010700090E089278BB985B190E0892785B985B142
:1010800090E0892785B985B194E0892785B985B134
:1010900098E0892785B985B190E1892785B985B11F
:1010A00090E0892785B988B190E0892788B988B10F
:1010B00092E0892788B988B194E0892788B9089592
:1010C0008BB190E089278BB98BB190E089278BB9E0
:1010D0008BB198E089278BB98BB190E089278BB9C8
:1010E0008BB190E289278BB98BB190E489278BB9BA
:1010F0008BB190E089278BB985B190E0892785B9BC
:1011000085B192E0892785B985B190E0892785B9B5
:1011100085B198E0892785B985B190E1892785B99E
:1011200085B190E0892785B988B190E0892788B991
:1011300088B192E0892788B988B194E0892788B975
:1011400008958BB190E089278BB98BB190E0892706
:101150008BB98BB198E089278BB98BB190E0892747
:101160008BB98BB190E289278BB98BB190E4892739
:101170008BB98BB190E089278BB985B190E0892735
:1011800085B985B190E0892785B985B190E0892737
:1011900085B985B198E0892785B985B190E189271E
:1011A00085B985B190E0892785B988B191E0892713
:1011B00088B988B192E0892788B988B194E08927F5
:1011C00088B908958BB192E089278BB98BB190E0F3
:1011D00089278BB98BB198E089278BB98BB190E0C7
:1011E00089278BB98BB190E289278BB98BB190E4B9
:1011F00089278BB98BB190E089278BB985B190E0B5
:10120000892785B985B190E0892785B985B190E0B6
:10121000892785B985B198E0892785B985B190E19D
:10122000892785B985B190E0892785B988B190E093
:10123000892788B988B192E0892788B988B194E074
:10124000892788B908958BB190E089278BB98BB134
:1012500090E089278BB98BB198E089278BB98BB146
:1012600090E089278BB98BB190E289278BB98BB13C
:1012700090E489278BB98BB190E089278BB985B130
:1012800090E0892785B985B190E0892785B985B136
:1012900090E0892785B985B198E0892785B985B11E
:1012A00090E1892785B985B190E2892785B988B110
:1012B00090E0892788B988B192E0892788B988B1F8
:1012C00094E0892788B908958BB190E089278BB97C
:1012D0008BB190E089278BB98BB198E089278BB9C6
:1012E0008BB190E089278BB98BB190E289278BB9BC
:1012F0008BB190E489278BB98BB190E089278BB9AA
:1013000085B191E0892785B985B190E0892785B9B4
:1013100085B190E0892785B985B198E0892785B99D
:1013200085B190E1892785B985B190E0892785B994
:1013300088B190E0892788B988B192E0892788B977
:1013400088B194E0892788B908958BB190E0892706
:101350008BB98BB194E089278BB98BB198E0892741
:101360008BB98BB190E089278BB98BB190E289273B
:101370008BB98BB190E489278BB98BB190E0892729
:101380008BB985B190E0892785B985B190E089272F
:1013900085B985B190E0892785B985B198E089271D
:1013A00085B985B190E1892785B985B190E0892714
:1013B00085B988B190E0892788B988B192E08927FA
:1013C00088B988B194E0892788B908958BB190E0F5
:1013D00089278BB98BB190E089278BB98BB198E0C5
:1013E00089278BB98BB190E089278BB98BB190E2BB
:1013F00089278BB98BB190E489278BB98BB190E8A1
:1014000089278BB985B190E0892785B985B190E0AE
:10141000892785B985B190E0892785B985B198E09C
:10142000892785B985B190E1892785B985B190E093
:10143000892785B988B190E0892788B988B192E079
:10144000892788B988B194E0892788B908958BB134
:1014500090E089278BB98BB190E089278BB98BB14C
:1014600098E089278BB98BB190E189278BB98BB133
:1014700090E289278BB98BB190E489278BB98BB126
:1014800090E089278BB985B190E0892785B985B12E
:1014900090E0892785B985B190E0892785B985B124
:1014A00098E0892785B985B190E1892785B985B10B
:1014B00090E0892785B988B190E0892788B988B1FB
:1014C00092E0892788B988B194E0892788B908957E
:1014D0008BB190E089278BB98BB190E089278BB9CC
:1014E0008BB198E089278BB98BB190E089278BB9B4
:1014F0008BB190E089278BB98BB190E489278BB9A8
:101500008BB190E089278BB985B190E0892785B9A7
:1015100085B192E0892785B985B194E0892785B99D
:1015200085B198E0892785B985B190E1892785B98A
:1015300085B190E0892785B988B190E0892788B97D
:1015400088B192E0892788B988B194E0892788B961
:1015500008958BB190E089278BB98BB190E08927F2
:101560008BB98BB198E089278BB98BB190E0892733
:101570008BB98BB190E089278BB98BB190E4892727
:101580008BB98BB190E089278BB985B190E0892721
:1015900085B985B190E0892785B985B194E089271F
:1015A00085B985B198E0892785B985B190E189270A
:1015B00085B985B190E0892785B988B191E08927FF
:1015C00088B988B192E0892788B988B194E08927E1
:1015D00088B908958BB192E089278BB98BB190E0DF
:1015E00089278BB98BB198E089278BB98BB190E0B3
:1015F00089278BB98BB190E089278BB98BB190E4A7
:1016000089278BB98BB190E089278BB985B190E0A0
:10161000892785B985B190E0892785B985B194E09E
:10162000892785B985B198E0892785B985B190E189
:10163000892785B985B190E0892785B988B190E07F
:10164000892788B988B192E0892788B988B194E060
:10165000892788B908958BB190E089278BB98BB120
:1016600090E089278BB98BB198E089278BB98BB132
:1016700090E089278BB98BB190E089278BB98BB12A
:1016800090E489278BB98BB190E089278BB985B11C
:1016900090E0892785B985B190E0892785B985B122
:1016A00094E0892785B985B198E0892785B985B106
:1016B00090E1892785B985B190E2892785B988B1FC
:1016C00090E0892788B988B192E0892788B988B1E4
:1016D00094E0892788B908958BB190E089278BB968
:1016E0008BB190E089278BB98BB198E089278BB9B2
:1016F0008BB190E089278BB98BB190E089278BB9AA
:101700008BB190E489278BB98BB190E089278BB995
:1017100085B191E0892785B985B190E0892785B9A0
:1017200085B194E0892785B985B198E0892785B985
:1017300085B190E1892785B985B190E0892785B980
:1017400088B190E0892788B988B192E0892788B963
:1017500088B194E0892788B908958BB190E08927F2
:101760008BB98BB194E089278BB98BB198E089272D
:101770008BB98BB190E089278BB98BB190E0892729
:101780008BB98BB190E489278BB98BB190E0892715
:101790008BB985B190E0892785B985B190E089271B
:1017A00085B985B194E0892785B985B198E0892705
:1017B00085B985B190E1892785B985B190E0892700
:1017C00085B988B190E0892788B988B192E08927E6
:1017D00088B988B194E0892788B908958BB190E0E1
:1017E00089278BB98BB190E089278BB98BB198E0B1
:1017F00089278BB98BB190E089278BB98BB190E0A9
:1018000089278BB98BB190E489278BB98BB190E88C
:1018100089278BB985B190E0892785B985B190E09A
:10182000892785B985B194E0892785B985B198E084
:10183000892785B985B190E1892785B985B190E07F
:10184000892785B988B190E0892788B988B192E065
:10185000892788B988B194E0892788B908958BB120
:1018600090E089278BB98BB190E089278BB98BB138
:1018700098E089278BB98BB190E189278BB98BB11F
:1018800090E089278BB98BB190E489278BB98BB114
:1018900090E089278BB985B190E0892785B985B11A
:1018A00090E0892785B985B194E0892785B985B10C
:1018B00098E0892785B985B190E1892785B985B1F7
:1018C00090E0892785B988B190E0892788B988B1E7
:1018D00092E0892788B988B194E0892788B908956A
:1018E0008BB190E089278BB98BB190E089278BB9B8
:1018F0008BB198E089278BB98BB190E089278BB9A0
:101900008BB190E289278BB98BB190E089278BB995
:101910008BB190E089278BB985B190E0892785B993
:1019200085B192E0892785B985B194E0892785B989
:1019300085B198E0892785B985B190E1892785B976
:1019400085B190E0892785B988B190E0892788B969
:1019500088B192E0892788B988B194E0892788B94D
:1019600008958BB190E089278BB98BB190E08927DE
:101970008BB98BB198E089278BB98BB190E089271F
:101980008BB98BB190E289278BB98BB190E0892715
:101990008BB98BB190E089278BB985B190E089270D
:1019A00085B985B190E0892785B985B194E089270B
:1019B00085B985B198E0892785B985B190E18927F6
:1019C00085B985B190E0892785B988B191E08927EB
:1019D00088B988B192E0892788B988B194E08927CD
:1019E00088B908958BB192E089278BB98BB190E0CB
:1019F00089278BB98BB198E089278BB98BB190E09F
:101A000089278BB98BB190E289278BB98BB190E094
:101A100089278BB98BB190E089278BB985B190E08C
:101A2000892785B985B190E0892785B985B194E08A
:101A3000892785B985B198E0892785B985B190E175
:101A4000892785B985B190E0892785B988B190E06B
:101A5000892788B988B192E0892788B988B194E04C
:101A6000892788B908958BB190E089278BB98BB10C
:101A700090E089278BB98BB198E089278BB98BB11E
:101A800090E089278BB98BB190E289278BB98BB114
:101A900090E089278BB98BB190E089278BB985B10C
:101AA00090E0892785B985B190E0892785B985B10E
:101AB00094E0892785B985B198E0892785B985B1F2
:101AC00090E1892785B985B190E2892785B988B1E8
:101AD00090E0892788B988B192E0892788B988B1D0
:101AE00094E0892788B908958BB190E089278BB954
:101AF0008BB190E089278BB98BB198E089278BB99E
:101B00008BB190E089278BB98BB190E289278BB993
:101B10008BB190E089278BB98BB190E089278BB985
:101B200085B191E0892785B985B190E0892785B98C
:101B300085B194E0892785B985B198E0892785B971
:101B400085B190E1892785B985B190E0892785B96C
:101B500088B190E0892788B988B192E0892788B94F
:101B600088B194E0892788B908958BB190E08927DE
:101B70008BB98BB194E089278BB98BB198E0892719
:101B80008BB98BB190E089278BB98BB190E2892713
:101B90008BB98BB190E089278BB98BB190E0892705
:101BA0008BB985B190E0892785B985B190E0892707
:101BB00085B985B194E0892785B985B198E08927F1
:101BC00085B985B190E1892785B985B190E08927EC
:101BD00085B988B190E0892788B988B192E08927D2
:101BE00088B988B194E0892788B908958BB190E0CD
:101BF00089278BB98BB190E089278BB98BB198E09D
:101C000089278BB98BB190E089278BB98BB190E292
:101C100089278BB98BB190E089278BB98BB190E87C
:101C200089278BB985B190E0892785B985B190E086
:101C3000892785B985B194E0892785B985B198E070
:101C4000892785B985B190E1892785B985B190E06B
:101C5000892785B988B190E0892788B988B192E051
:101C6000892788B988B194E0892788B908958BB10C
:101C700090E089278BB98BB190E089278BB98BB124
:101C800098E089278BB98BB190E189278BB98BB10B
:101C900090E289278BB98BB190E089278BB98BB102
:101CA00090E089278BB985B190E0892785B985B106
:101CB00090E0892785B985B194E0892785B985B1F8
:101CC00098E0892785B985B190E1892785B985B1E3
:101CD00090E0892785B988B190E0892788B988B1D3
:101CE00092E0892788B988B194E0892788B9089556
:101CF0008BB190E089278BB98BB190E089278BB9A4
:101D00008BB198E089278BB98BB190E089278BB98B
:101D10008BB190E289278BB98BB190E489278BB97D
:101D20008BB190E089278BB985B190E0892785B97F
:101D300085B192E0892785B985B194E0892785B975
:101D400085B198E0892785B985B190E0892785B963
:101D500085B190E0892785B988B190E0892788B955
:101D600088B192E0892788B988B194E0892788B939
:101D700008958BB190E089278BB98BB190E08927CA
:101D80008BB98BB198E089278BB98BB190E089270B
:101D90008BB98BB190E289278BB98BB190E48927FD
:101DA0008BB98BB190E089278BB985B190E08927F9
:101DB00085B985B190E0892785B985B194E08927F7
:101DC00085B985B198E0892785B985B190E08927E3
:101DD00085B985B190E0892785B988B191E08927D7
:101DE00088B988B192E0892788B988B194E08927B9
:101DF00088B908958BB192E089278BB98BB190E0B7
:101E000089278BB98BB198E089278BB98BB190E08A
:101E100089278BB98BB190E289278BB98BB190E47C
:101E200089278BB98BB190E089278BB985B190E078
:101E3000892785B985B190E0892785B985B194E076
:101E4000892785B985B198E0892785B985B190E062
:101E5000892785B985B190E0892785B988B190E057
:101E6000892788B988B192E0892788B988B194E038
:101E7000892788B908958BB190E089278BB98BB1F8
:101E800090E089278BB98BB198E089278BB98BB10A
:101E900090E089278BB98BB190E289278BB98BB100
:101EA00090E489278BB98BB190E089278BB985B1F4
:101EB00090E0892785B985B190E0892785B985B1FA
:101EC00094E0892785B985B198E0892785B985B1DE
:101ED00090E0892785B985B190E2892785B988B1D5
:101EE00090E0892788B988B192E0892788B988B1BC
:101EF00094E0892788B908958BB190E089278BB940
:101F00008BB190E089278BB98BB198E089278BB989
:101F10008BB190E089278BB98BB190E289278BB97F
:101F20008BB190E489278BB98BB190E089278BB96D
:101F300085B191E0892785B985B190E0892785B978
:101F400085B194E0892785B985B198E0892785B95D
:101F500085B190E0892785B985B190E0892785B959
:101F600088B190E0892788B988B192E0892788B93B
:101F700088B194E0892788B908958BB190E08927CA
:101F80008BB98BB194E089278BB98BB198E0892705
:101F90008BB98BB190E089278BB98BB190E28927FF
:101FA0008BB98BB190E489278BB98BB190E08927ED
:101FB0008BB985B190E0892785B985B190E08927F3
:101FC00085B985B194E0892785B985B198E08927DD
:101FD00085B985B190E0892785B985B190E08927D9
:101FE00085B988B190E0892788B988B192E08927BE
:101FF00088B988B194E0892788B908958BB190E0B9
:1020000089278BB98BB190E089278BB98BB198E088
:1020100089278BB98BB190E089278BB98BB190E27E
:1020200089278BB98BB190E489278BB98BB190E864
:1020300089278BB985B190E0892785B985B190E072
:10204000892785B985B194E0892785B985B198E05C
:10205000892785B985B190E0892785B985B190E058
:10206000892785B988B190E0892788B988B192E03D
:10207000892788B988B194E0892788B908958BB1F8
:1020800090E089278BB98BB190E089278BB98BB110
:1020900098E089278BB98BB190E189278BB98BB1F7
:1020A00090E289278BB98BB190E489278BB98BB1EA
:1020B00090E089278BB985B190E0892785B985B1F2
:1020C00090E0892785B985B194E0892785B985B1E4
:1020D00098E0892785B985B190E0892785B985B1D0
:1020E00090E0892785B988B190E0892788B988B1BF
:1020F00092E0892788B988B194E0892788B9089542
:102100008BB192E089278BB98BB194E089278BB989
:102110008BB190E089278BB98BB190E189278BB97E
:102120008BB190E089278BB98BB190E089278BB96F
:102130008BB190E889278BB985B191E0892785B962
:1021400085B192E0892785B985B190E0892785B965
:1021500085B190E0892785B985B190E0892785B957
:1021600085B190E2892785B988B191E0892788B93E
:1021700088B190E0892788B988B190E0892788B92B
:102180000895CFEFD8E0DEBFCDBF0E94E6100E94D9
:1021900080100E941C110E941C110E941C110E94A0
:1021A0001C110E941C110E941C110E941C110E94F3
:1021B0001C110E941C110E9480100E9427130E9473
:1021C00026110E9428150E942917E1CF11241FBE55
:1021D00080E88093610010926100519A529A539A5C
:1021E000549A559A569A579A209A219A229A239A43
:1021F000249A259A389A399A3A9A089501E018EC67
:1022000028EC2A95F1F71A95D9F70A95C1F70895A0
:1022100002E018EC28EC2A95F1F71A95D9F70A95FF
:10222000C1F7089503E018EC28EC2A95F1F71A9508
:10223000D9F70A95C1F7089504E018EC28EC2A951F
:10224000F1F71A95D9F70A95C1F708950E94400051
:102250000E9408110E9440000E9408110E94810003
:102260000E9408110E9481000E9408110E94C20071
:102270000E9408110E94C2000E9408110E940301DE
:102280000E9408110E9403010E9408110E9444014B
:102290000E9408110E9444010E9408110E948501B9
:1022A0000E9408110E9485010E9408110E94C60127
:1022B0000E9408110E94C6010E9408110E94070294
:1022C0000E9408110E9407020E9408110E94480201
:1022D0000E9408110E9448020E9408110E9489026F
:1022E0000E9408110E9489020E9408110E94CA02DD
:1022F0000E9408110E94CA020E9408110E940B034A
:102300000E9408110E940B030E9408110E944C03B6
:102310000E9408110E944C030E9408110E948D0324
:102320000E9408110E948D030E9408110E94CE0392
:102330000E9408110E94CE030E9408110E940F04FF
:102340000E9408110E940F040E9408110E9450046C
:102350000E9408110E9450040E9408110E949104DA
:102360000E9408110E9491040E9408110E94D20448
:102370000E9408110E94D2040E9408110E941305B5
:102380000E9408110E9413050E9408110E94540522
:102390000E9408110E9454050E9408110E94950590
:1023A0000E9408110E9495050E9408110E94D605FE
:1023B0000E9408110E94D6050E9408110E9417066B
:1023C0000E9408110E9417060E9408110E945806D8
:1023D0000E9408110E9458060E9408110E94990646
:1023E0000E9408110E9499060E9408110E94DA06B4
:1023F0000E9408110E94DA060E9408110E941B0721
:102400000E9408110E941B070E9408110E945C078D
:102410000E9408110E945C070E9408110E949D07FB
:102420000E9408110E949D070E9408110E94DE0769
:102430000E9408110E94DE070E9408110E941F08D6
:102440000E9408110E941F080E9408110E94600843
:102450000E9408110E9460080E9408110E94A108B1
:102460000E9408110E94A1080E9408110E94E2081F
:102470000E9408110E94E2080E9408110E9423098C
:102480000E9408110E9423090E9408110E946409F9
:102490000E9408110E9464090E9408110E94A50967
:1024A0000E9408110E94A5090E9408110E94E609D5
:1024B0000E9408110E94E6090E9408110E94270A42
:1024C0000E9408110E94270A0E9408110E94680AAF
:1024D0000E9408110E94680A0E9408110E94A90A1D
:1024E0000E9408110E94A90A0E9408110E94EA0A8B
:1024F0000E9408110E94EA0A0E9408110E942B0BF8
:102500000E9408110E942B0B0E9408110E946C0B64
:102510000E9408110E946C0B0E9408110E94AD0BD2
:102520000E9408110E94AD0B0E9408110E94EE0B40
:102530000E9408110E94EE0B0E9408110E942F0CAD
:102540000E9408110E942F0C0E9408110E94700C1A
:102550000E9408110E94700C0E9408110E94B10C88
:102560000E9408110E94B10C0E9408110E94F20CF6
:102570000E9408110E94F20C0E9408110E94330D63
:102580000E9408110E94330D0E9408110E94740DD0
:102590000E9408110E94740D0E9408110E94B50D3E
:1025A0000E9408110E94B50D0E9408110E94F60DAC
:1025B0000E9408110E94F60D0E9408110E94370E19
:1025C0000E9408110E94370E0E9408110E94780E86
:1025D0000E9408110E94780E0E9408110E94B90EF4
:1025E0000E9408110E94B90E0E9408110E94FA0E62
:1025F0000E9408110E94FA0E0E9408110E943B0FCF
:102600000E9408110E943B0F0E9408110E947C0F3B
:102610000E9408110E947C0F0E9408110E94BD0FA9
:102620000E9408110E94BD0F0E9408110E94FE0F17
:102630000E9408110E94FE0F0E9408110E943F1084
:102640000E9408110E943F100E94081108950E94E4
:1026500040000E94FE100E9440000E94FE100E9456
:1026600081000E94FE100E9481000E94FE100E94C4
:10267000C2000E94FE100E94C2000E94FE100E9432
:1026800003010E94FE100E9403010E94FE100E949E
:1026900044010E94FE100E9444010E94FE100E940C
:1026A00085010E94FE100E9485010E94FE100E947A
:1026B000C6010E94FE100E94C6010E94FE100E94E8
:1026C00007020E94FE100E9407020E94FE100E9454
:1026D00048020E94FE100E9448020E94FE100E94C2
:1026E00089020E94FE100E9489020E94FE100E9430
:1026F000CA020E94FE100E94CA020E94FE100E949E
:102700000B030E94FE100E940B030E94FE100E9409
:102710004C030E94FE100E944C030E94FE100E9477
:102720008D030E94FE100E948D030E94FE100E94E5
:10273000CE030E94FE100E94CE030E94FE100E9453
:102740000F040E94FE100E940F040E94FE100E94BF
:1027500050040E94FE100E9450040E94FE100E942D
:1027600091040E94FE100E9491040E94FE100E949B
:10277000D2040E94FE100E94D2040E94FE100E9409
:1027800013050E94FE100E9413050E94FE100E9475
:1027900054050E94FE100E9454050E94FE100E94E3
:1027A00095050E94FE100E9495050E94FE100E9451
:1027B000D6050E94FE100E94D6050E94FE100E94BF
:1027C00017060E94FE100E9417060E94FE100E942B
:1027D00058060E94FE100E9458060E94FE100E9499
:1027E00099060E94FE100E9499060E94FE100E9407
:1027F000DA060E94FE100E94DA060E94FE100E9475
:102800001B070E94FE100E941B070E94FE100E94E0
:102810005C070E94FE100E945C070E94FE100E944E
:102820009D070E94FE100E949D070E94FE100E94BC
:10283000DE070E94FE100E94DE070E94FE100E942A
:102840001F080E94FE100E941F080E94FE100E9496
:1028500060080E94FE100E9460080E94FE100E9404
:10286000A1080E94FE100E94A1080E94FE100E9472
:10287000E2080E94FE100E94E2080E94FE100E94E0
:1028800023090E94FE100E9423090E94FE100E944C
:1028900064090E94FE100E9464090E94FE100E94BA
:1028A000A5090E94FE100E94A5090E94FE100E9428
:1028B000E6090E94FE100E94E6090E94FE100E9496
:1028C000270A0E94FE100E94270A0E94FE100E9402
:1028D000680A0E94FE100E94680A0E94FE100E9470
:1028E000A90A0E94FE100E94A90A0E94FE100E94DE
:1028F000EA0A0E94FE100E94EA0A0E94FE100E944C
:102900002B0B0E94FE100E942B0B0E94FE100E94B7
:102910006C0B0E94FE100E946C0B0E94FE100E9425
:10292000AD0B0E94FE100E94AD0B0E94FE100E9493
:10293000EE0B0E94FE100E94EE0B0E94FE100E9401
:102940002F0C0E94FE100E942F0C0E94FE100E946D
:10295000700C0E94FE100E94700C0E94FE100E94DB
:10296000B10C0E94FE100E94B10C0E94FE100E9449
:10297000F20C0E94FE100E94F20C0E94FE100E94B7
:10298000330D0E94FE100E94330D0E94FE100E9423
:10299000740D0E94FE100E94740D0E94FE100E9491
:1029A000B50D0E94FE100E94B50D0E94FE100E94FF
:1029B000F60D0E94FE100E94F60D0E94FE100E946D
:1029C000370E0E94FE100E94370E0E94FE100E94D9
:1029D000780E0E94FE100E94780E0E94FE100E9447
:1029E000B90E0E94FE100E94B90E0E94FE100E94B5
:1029F000FA0E0E94FE100E94FA0E0E94FE100E9423
:102A00003B0F0E94FE100E943B0F0E94FE100E948E
:102A10007C0F0E94FE100E947C0F0E94FE100E94FC
:102A2000BD0F0E94FE100E94BD0F0E94FE100E946A
:102A3000FE0F0E94FE100E94FE0F0E94FE100E94D8
:102A40003F100E94FE100E943F100E94FE10089549
:102A50000E9440000E9412110E9440000E94121128
:102A60000E9481000E9412110E9481000E94121196
:102A70000E94C2000E9412110E94C2000E94121104
:102A80000E9403010E9412110E9403010E94121170
:102A90000E9444010E9412110E9444010E941211DE
:102AA0000E9485010E9412110E9485010E9412114C
:102AB0000E94C6010E9412110E94C6010E941211BA
:102AC0000E9407020E9412110E9407020E94121126
:102AD0000E9448020E9412110E9448020E94121194
:102AE0000E9489020E9412110E9489020E94121102
:102AF0000E94CA020E9412110E94CA020E94121170
:102B00000E940B030E9412110E940B030E941211DB
:102B10000E944C030E9412110E944C030E94121149
:102B20000E948D030E9412110E948D030E941211B7
:102B30000E94CE030E9412110E94CE030E94121125
:102B40000E940F040E9412110E940F040E94121191
:102B50000E9450040E9412110E9450040E941211FF
:102B60000E9491040E9412110E9491040E9412116D
:102B70000E94D2040E9412110E94D2040E941211DB
:102B80000E9413050E9412110E9413050E94121147
:102B90000E9454050E9412110E9454050E941211B5
:102BA0000E9495050E9412110E9495050E94121123
:102BB0000E94D6050E9412110E94D6050E94121191
:102BC0000E9417060E9412110E9417060E941211FD
:102BD0000E9458060E9412110E9458060E9412116B
:102BE0000E9499060E9412110E9499060E941211D9
:102BF0000E94DA060E9412110E94DA060E94121147
:102C00000E941B070E9412110E941B070E941211B2
:102C10000E945C070E9412110E945C070E94121120
:102C20000E949D070E9412110E949D070E9412118E
:102C30000E94DE070E9412110E94DE070E941211FC
:102C40000E941F080E9412110E941F080E94121168
:102C50000E9460080E9412110E9460080E941211D6
:102C60000E94A1080E9412110E94A1080E94121144
:102C70000E94E2080E9412110E94E2080E941211B2
:102C80000E9423090E9412110E9423090E9412111E
:102C90000E9464090E9412110E9464090E9412118C
:102CA0000E94A5090E9412110E94A5090E941211FA
:102CB0000E94E6090E9412110E94E6090E94121168
:102CC0000E94270A0E9412110E94270A0E941211D4
:102CD0000E94680A0E9412110E94680A0E94121142
:102CE0000E94A90A0E9412110E94A90A0E941211B0
:102CF0000E94EA0A0E9412110E94EA0A0E9412111E
:102D00000E942B0B0E9412110E942B0B0E94121189
:102D10000E946C0B0E9412110E946C0B0E941211F7
:102D20000E94AD0B0E9412110E94AD0B0E94121165
:102D30000E94EE0B0E9412110E94EE0B0E941211D3
:102D40000E942F0C0E9412110E942F0C0E9412113F
:102D50000E94700C0E9412110E94700C0E941211AD
:102D60000E94B10C0E9412110E94B10C0E9412111B
:102D70000E94F20C0E9412110E94F20C0E94121189
:102D80000E94330D0E9412110E94330D0E941211F5
:102D90000E94740D0E9412110E94740D0E94121163
:102DA0000E94B50D0E9412110E94B50D0E941211D1
:102DB0000E94F60D0E9412110E94F60D0E9412113F
:102DC0000E94370E0E9412110E94370E0E941211AB
:102DD0000E94780E0E9412110E94780E0E94121119
:102DE0000E94B90E0E9412110E94B90E0E94121187
:102DF0000E94FA0E0E9412110E94FA0E0E941211F5
:102E00000E943B0F0E9412110E943B0F0E94121160
:102E10000E947C0F0E9412110E947C0F0E941211CE
:102E20000E94BD0F0E9412110E94BD0F0E9412113C
:102E30000E94FE0F0E9412110E94FE0F0E941211AA
:102E40000E943F100E9412110E943F100E94121116
:102E500008950E9440000E941C110E9440000E94A0
:102E60001C110E9481000E941C110E9481000E947E
:102E70001C110E94C2000E941C110E94C2000E94EC
:102E80001C110E9403010E941C110E9403010E9458
:102E90001C110E9444010E941C110E9444010E94C6
:102EA0001C110E9485010E941C110E9485010E9434
:102EB0001C110E94C6010E941C110E94C6010E94A2
:102EC0001C110E9407020E941C110E9407020E940E
:102ED0001C110E9448020E941C110E9448020E947C
:102EE0001C110E9489020E941C110E9489020E94EA
:102EF0001C110E94CA020E941C110E94CA020E9458
:102F00001C110E940B030E941C110E940B030E94C3
:102F10001C110E944C030E941C110E944C030E9431
:102F20001C110E948D030E941C110E948D030E949F
:102F30001C110E94CE030E941C110E94CE030E940D
:102F40001C110E940F040E941C110E940F040E9479
:102F50001C110E9450040E941C110E9450040E94E7
:102F60001C110E9491040E941C110E9491040E9455
:102F70001C110E94D2040E941C110E94D2040E94C3
:102F80001C110E9413050E941C110E9413050E942F
:102F90001C110E9454050E941C110E9454050E949D
:102FA0001C110E9495050E941C110E9495050E940B
:102FB0001C110E94D6050E941C110E94D6050E9479
:102FC0001C110E9417060E941C110E9417060E94E5
:102FD0001C110E9458060E941C110E9458060E9453
:102FE0001C110E9499060E941C110E9499060E94C1
:102FF0001C110E94DA060E941C110E94DA060E942F
:103000001C110E941B070E941C110E941B070E949A
:103010001C110E945C070E941C110E945C070E9408
:103020001C110E949D070E941C110E949D070E9476
:103030001C110E94DE070E941C110E94DE070E94E4
:103040001C110E941F080E941C110E941F080E9450
:103050001C110E9460080E941C110E9460080E94BE
:103060001C110E94A1080E941C110E94A1080E942C
:103070001C110E94E2080E941C110E94E2080E949A
:103080001C110E9423090E941C110E9423090E9406
:103090001C110E9464090E941C110E9464090E9474
:1030A0001C110E94A5090E941C110E94A5090E94E2
:1030B0001C110E94E6090E941C110E94E6090E9450
:1030C0001C110E94270A0E941C110E94270A0E94BC
:1030D0001C110E94680A0E941C110E94680A0E942A
:1030E0001C110E94A90A0E941C110E94A90A0E9498
:1030F0001C110E94EA0A0E941C110E94EA0A0E9406
:103100001C110E942B0B0E941C110E942B0B0E9471
:103110001C110E946C0B0E941C110E946C0B0E94DF
:103120001C110E94AD0B0E941C110E94AD0B0E944D
:103130001C110E94EE0B0E941C110E94EE0B0E94BB
:103140001C110E942F0C0E941C110E942F0C0E9427
:103150001C110E94700C0E941C110E94700C0E9495
:103160001C110E94B10C0E941C110E94B10C0E9403
:103170001C110E94F20C0E941C110E94F20C0E9471
:103180001C110E94330D0E941C110E94330D0E94DD
:103190001C110E94740D0E941C110E94740D0E944B
:1031A0001C110E94B50D0E941C110E94B50D0E94B9
:1031B0001C110E94F60D0E941C110E94F60D0E9427
:1031C0001C110E94370E0E941C110E94370E0E9493
:1031D0001C110E94780E0E941C110E94780E0E9401
:1031E0001C110E94B90E0E941C110E94B90E0E946F
:1031F0001C110E94FA0E0E941C110E94FA0E0E94DD
:103200001C110E943B0F0E941C110E943B0F0E9448
:103210001C110E947C0F0E941C110E947C0F0E94B6
:103220001C110E94BD0F0E941C110E94BD0F0E9424
:103230001C110E94FE0F0E941C110E94FE0F0E9492
:103240001C110E943F100E941C110E943F100E94FE
:083250001C110895F894FFCF52
:00000001FF
