:100000000C9434000C943E000C943E000C943E0082
:100010000C943E000C943E000C943E000C943E0068
:100020000C943E000C943E000C943E000C943E0058
:100030000C943E000C943E000C943E000C943E0048
:100040000C943E000C943E000C943E000C943E0038
:100050000C943E000C943E000C943E000C943E0028
:100060000C943E000C943E0011241FBECFEFD8E04C
:10007000DEBFCDBF0E9440000C94C4000C94000071
:10008000CFEFD8E0DEBFCDBF0E9451000E947900C3
:100090000E94BA000E94BA000E9479000E94BA0031
:1000A000F5CF11241FBE80E880936100109261009B
:1000B000519A5998529A5A98539A5B98549A5C98C4
:1000C000559A5D98569A5E98579A5F98209A289804
:1000D000219A2998229A2A98239A2B98249A2C9824
:1000E000259A2D98389A4098399A41983A9A429888
:1000F00008958BB192E089278BB98BB194E0892761
:100100008BB98BB190E089278BB98BB190E18927AE
:100110008BB98BB190E089278BB98BB190E089279F
:100120008BB98BB190E889278BB985B191E089278C
:1001300085B985B192E0892785B985B190E0892795
:1001400085B985B190E0892785B985B190E0892787
:1001500085B985B190E2892785B988B191E0892771
:1001600088B988B190E0892788B988B190E089275B
:1001700088B9089504E618EC28EC2A95F1F71A9549
:0C018000D9F70A95C1F70895F894FFCF55
:00000001FF
